{
  "_format": "hh-sol-artifact-1",
  "contractName": "DeluluDex",
  "sourceName": "contracts/Token_N_Dex.sol",
  "abi": [
    {
      "inputs": [
        {
          "internalType": "address",
          "name": "_A",
          "type": "address"
        },
        {
          "internalType": "address",
          "name": "_B",
          "type": "address"
        }
      ],
      "stateMutability": "nonpayable",
      "type": "constructor"
    },
    {
      "inputs": [
        {
          "internalType": "address",
          "name": "spender",
          "type": "address"
        },
        {
          "internalType": "uint256",
          "name": "allowance",
          "type": "uint256"
        },
        {
          "internalType": "uint256",
          "name": "needed",
          "type": "uint256"
        }
      ],
      "name": "ERC20InsufficientAllowance",
      "type": "error"
    },
    {
      "inputs": [
        {
          "internalType": "address",
          "name": "sender",
          "type": "address"
        },
        {
          "internalType": "uint256",
          "name": "balance",
          "type": "uint256"
        },
        {
          "internalType": "uint256",
          "name": "needed",
          "type": "uint256"
        }
      ],
      "name": "ERC20InsufficientBalance",
      "type": "error"
    },
    {
      "inputs": [
        {
          "internalType": "address",
          "name": "approver",
          "type": "address"
        }
      ],
      "name": "ERC20InvalidApprover",
      "type": "error"
    },
    {
      "inputs": [
        {
          "internalType": "address",
          "name": "receiver",
          "type": "address"
        }
      ],
      "name": "ERC20InvalidReceiver",
      "type": "error"
    },
    {
      "inputs": [
        {
          "internalType": "address",
          "name": "sender",
          "type": "address"
        }
      ],
      "name": "ERC20InvalidSender",
      "type": "error"
    },
    {
      "inputs": [
        {
          "internalType": "address",
          "name": "spender",
          "type": "address"
        }
      ],
      "name": "ERC20InvalidSpender",
      "type": "error"
    },
    {
      "anonymous": false,
      "inputs": [
        {
          "indexed": true,
          "internalType": "address",
          "name": "owner",
          "type": "address"
        },
        {
          "indexed": true,
          "internalType": "address",
          "name": "spender",
          "type": "address"
        },
        {
          "indexed": false,
          "internalType": "uint256",
          "name": "value",
          "type": "uint256"
        }
      ],
      "name": "Approval",
      "type": "event"
    },
    {
      "anonymous": false,
      "inputs": [
        {
          "indexed": true,
          "internalType": "address",
          "name": "from",
          "type": "address"
        },
        {
          "indexed": true,
          "internalType": "address",
          "name": "to",
          "type": "address"
        },
        {
          "indexed": false,
          "internalType": "uint256",
          "name": "value",
          "type": "uint256"
        }
      ],
      "name": "Transfer",
      "type": "event"
    },
    {
      "inputs": [],
      "name": "FEE",
      "outputs": [
        {
          "internalType": "uint256",
          "name": "",
          "type": "uint256"
        }
      ],
      "stateMutability": "view",
      "type": "function"
    },
    {
      "inputs": [
        {
          "internalType": "uint256",
          "name": "amtA",
          "type": "uint256"
        },
        {
          "internalType": "uint256",
          "name": "amtB",
          "type": "uint256"
        }
      ],
      "name": "addLiquidity",
      "outputs": [],
      "stateMutability": "nonpayable",
      "type": "function"
    },
    {
      "inputs": [
        {
          "internalType": "address",
          "name": "owner",
          "type": "address"
        },
        {
          "internalType": "address",
          "name": "spender",
          "type": "address"
        }
      ],
      "name": "allowance",
      "outputs": [
        {
          "internalType": "uint256",
          "name": "",
          "type": "uint256"
        }
      ],
      "stateMutability": "view",
      "type": "function"
    },
    {
      "inputs": [
        {
          "internalType": "address",
          "name": "spender",
          "type": "address"
        },
        {
          "internalType": "uint256",
          "name": "value",
          "type": "uint256"
        }
      ],
      "name": "approve",
      "outputs": [
        {
          "internalType": "bool",
          "name": "",
          "type": "bool"
        }
      ],
      "stateMutability": "nonpayable",
      "type": "function"
    },
    {
      "inputs": [
        {
          "internalType": "address",
          "name": "account",
          "type": "address"
        }
      ],
      "name": "balanceOf",
      "outputs": [
        {
          "internalType": "uint256",
          "name": "",
          "type": "uint256"
        }
      ],
      "stateMutability": "view",
      "type": "function"
    },
    {
      "inputs": [],
      "name": "decimals",
      "outputs": [
        {
          "internalType": "uint8",
          "name": "",
          "type": "uint8"
        }
      ],
      "stateMutability": "view",
      "type": "function"
    },
    {
      "inputs": [],
      "name": "name",
      "outputs": [
        {
          "internalType": "string",
          "name": "",
          "type": "string"
        }
      ],
      "stateMutability": "view",
      "type": "function"
    },
    {
      "inputs": [
        {
          "internalType": "uint256",
          "name": "lp",
          "type": "uint256"
        }
      ],
      "name": "removeLiquidity",
      "outputs": [],
      "stateMutability": "nonpayable",
      "type": "function"
    },
    {
      "inputs": [],
      "name": "reserveA",
      "outputs": [
        {
          "internalType": "uint256",
          "name": "",
          "type": "uint256"
        }
      ],
      "stateMutability": "view",
      "type": "function"
    },
    {
      "inputs": [],
      "name": "reserveB",
      "outputs": [
        {
          "internalType": "uint256",
          "name": "",
          "type": "uint256"
        }
      ],
      "stateMutability": "view",
      "type": "function"
    },
    {
      "inputs": [
        {
          "internalType": "uint256",
          "name": "amtA",
          "type": "uint256"
        }
      ],
      "name": "swapAforB",
      "outputs": [],
      "stateMutability": "nonpayable",
      "type": "function"
    },
    {
      "inputs": [
        {
          "internalType": "uint256",
          "name": "amtB",
          "type": "uint256"
        }
      ],
      "name": "swapBforA",
      "outputs": [],
      "stateMutability": "nonpayable",
      "type": "function"
    },
    {
      "inputs": [],
      "name": "symbol",
      "outputs": [
        {
          "internalType": "string",
          "name": "",
          "type": "string"
        }
      ],
      "stateMutability": "view",
      "type": "function"
    },
    {
      "inputs": [],
      "name": "tokenA",
      "outputs": [
        {
          "internalType": "contract IERC20",
          "name": "",
          "type": "address"
        }
      ],
      "stateMutability": "view",
      "type": "function"
    },
    {
      "inputs": [],
      "name": "tokenB",
      "outputs": [
        {
          "internalType": "contract IERC20",
          "name": "",
          "type": "address"
        }
      ],
      "stateMutability": "view",
      "type": "function"
    },
    {
      "inputs": [],
      "name": "totalSupply",
      "outputs": [
        {
          "internalType": "uint256",
          "name": "",
          "type": "uint256"
        }
      ],
      "stateMutability": "view",
      "type": "function"
    },
    {
      "inputs": [
        {
          "internalType": "address",
          "name": "to",
          "type": "address"
        },
        {
          "internalType": "uint256",
          "name": "value",
          "type": "uint256"
        }
      ],
      "name": "transfer",
      "outputs": [
        {
          "internalType": "bool",
          "name": "",
          "type": "bool"
        }
      ],
      "stateMutability": "nonpayable",
      "type": "function"
    },
    {
      "inputs": [
        {
          "internalType": "address",
          "name": "from",
          "type": "address"
        },
        {
          "internalType": "address",
          "name": "to",
          "type": "address"
        },
        {
          "internalType": "uint256",
          "name": "value",
          "type": "uint256"
        }
      ],
      "name": "transferFrom",
      "outputs": [
        {
          "internalType": "bool",
          "name": "",
          "type": "bool"
        }
      ],
      "stateMutability": "nonpayable",
      "type": "function"
    }
  ],
  "bytecode": "0x608060405234801561001057600080fd5b506040516123b73803806123b7833981810160405281019061003291906101ac565b6040518060400160405280600981526020017f44656c756c75204c5000000000000000000000000000000000000000000000008152506040518060400160405280600581526020017f444c504c5000000000000000000000000000000000000000000000000000000081525081600390816100ad919061043c565b5080600490816100bd919061043c565b50505081600560006101000a81548173ffffffffffffffffffffffffffffffffffffffff021916908373ffffffffffffffffffffffffffffffffffffffff16021790555080600660006101000a81548173ffffffffffffffffffffffffffffffffffffffff021916908373ffffffffffffffffffffffffffffffffffffffff160217905550505061050e565b600080fd5b600073ffffffffffffffffffffffffffffffffffffffff82169050919050565b60006101798261014e565b9050919050565b6101898161016e565b811461019457600080fd5b50565b6000815190506101a681610180565b92915050565b600080604083850312156101c3576101c2610149565b5b60006101d185828601610197565b92505060206101e285828601610197565b9150509250929050565b600081519050919050565b7f4e487b7100000000000000000000000000000000000000000000000000000000600052604160045260246000fd5b7f4e487b7100000000000000000000000000000000000000000000000000000000600052602260045260246000fd5b6000600282049050600182168061026d57607f821691505b6020821081036102805761027f610226565b5b50919050565b60008190508160005260206000209050919050565b60006020601f8301049050919050565b600082821b905092915050565b6000600883026102e87fffffffffffffffffffffffffffffffffffffffffffffffffffffffffffffffff826102ab565b6102f286836102ab565b95508019841693508086168417925050509392505050565b6000819050919050565b6000819050919050565b600061033961033461032f8461030a565b610314565b61030a565b9050919050565b6000819050919050565b6103538361031e565b61036761035f82610340565b8484546102b8565b825550505050565b600090565b61037c61036f565b61038781848461034a565b505050565b5b818110156103ab576103a0600082610374565b60018101905061038d565b5050565b601f8211156103f0576103c181610286565b6103ca8461029b565b810160208510156103d9578190505b6103ed6103e58561029b565b83018261038c565b50505b505050565b600082821c905092915050565b6000610413600019846008026103f5565b1980831691505092915050565b600061042c8383610402565b9150826002028217905092915050565b610445826101ec565b67ffffffffffffffff81111561045e5761045d6101f7565b5b6104688254610255565b6104738282856103af565b600060209050601f8311600181146104a65760008415610494578287015190505b61049e8582610420565b865550610506565b601f1984166104b486610286565b60005b828110156104dc578489015182556001820191506020850194506020810190506104b7565b868310156104f957848901516104f5601f891682610402565b8355505b6001600288020188555050505b505050505050565b611e9a8061051d6000396000f3fe608060405234801561001057600080fd5b50600436106101165760003560e01c80638014a7aa116100a2578063a9059cbb11610071578063a9059cbb146102d1578063c57981b514610301578063dc5fa6c51461031f578063dd62ed3e1461033d578063e4f1f70a1461036d57610116565b80638014a7aa1461025f57806395d89b411461027b5780639c8f9f23146102995780639cd441da146102b557610116565b806319e36f3b116100e957806319e36f3b146101a557806323b872dd146101c3578063313ce567146101f35780635f64b55b1461021157806370a082311461022f57610116565b806306fdde031461011b578063095ea7b3146101395780630fc63d101461016957806318160ddd14610187575b600080fd5b610123610389565b604051610130919061175e565b60405180910390f35b610153600480360381019061014e9190611819565b61041b565b6040516101609190611874565b60405180910390f35b61017161043e565b60405161017e91906118ee565b60405180910390f35b61018f610464565b60405161019c9190611918565b60405180910390f35b6101ad61046e565b6040516101ba9190611918565b60405180910390f35b6101dd60048036038101906101d89190611933565b610511565b6040516101ea9190611874565b60405180910390f35b6101fb610540565b60405161020891906119a2565b60405180910390f35b610219610549565b60405161022691906118ee565b60405180910390f35b610249600480360381019061024491906119bd565b61056f565b6040516102569190611918565b60405180910390f35b610279600480360381019061027491906119ea565b6105b7565b005b6102836107b1565b604051610290919061175e565b60405180910390f35b6102b360048036038101906102ae91906119ea565b610843565b005b6102cf60048036038101906102ca9190611a17565b610a28565b005b6102eb60048036038101906102e69190611819565b610c4c565b6040516102f89190611874565b60405180910390f35b610309610c6f565b6040516103169190611918565b60405180910390f35b610327610c74565b6040516103349190611918565b60405180910390f35b61035760048036038101906103529190611a57565b610d17565b6040516103649190611918565b60405180910390f35b610387600480360381019061038291906119ea565b610d9e565b005b60606003805461039890611ac6565b80601f01602080910402602001604051908101604052809291908181526020018280546103c490611ac6565b80156104115780601f106103e657610100808354040283529160200191610411565b820191906000526020600020905b8154815290600101906020018083116103f457829003601f168201915b5050505050905090565b600080610426610f98565b9050610433818585610fa0565b600191505092915050565b600560009054906101000a900473ffffffffffffffffffffffffffffffffffffffff1681565b6000600254905090565b6000600660009054906101000a900473ffffffffffffffffffffffffffffffffffffffff1673ffffffffffffffffffffffffffffffffffffffff166370a08231306040518263ffffffff1660e01b81526004016104cb9190611b06565b602060405180830381865afa1580156104e8573d6000803e3d6000fd5b505050506040513d601f19601f8201168201806040525081019061050c9190611b36565b905090565b60008061051c610f98565b9050610529858285610fb2565b610534858585611047565b60019150509392505050565b60006012905090565b600660009054906101000a900473ffffffffffffffffffffffffffffffffffffffff1681565b60008060008373ffffffffffffffffffffffffffffffffffffffff1673ffffffffffffffffffffffffffffffffffffffff168152602001908152602001600020549050919050565b600081116105fa576040517f08c379a00000000000000000000000000000000000000000000000000000000081526004016105f190611baf565b60405180910390fd5b6000606460018361060b9190611bfe565b6106159190611c6f565b9050600081836106259190611ca0565b90506000610631610c74565b9050600061063d61046e565b90506000838261064d9190611cd4565b84846106599190611bfe565b6106639190611c6f565b9050600660009054906101000a900473ffffffffffffffffffffffffffffffffffffffff1673ffffffffffffffffffffffffffffffffffffffff166323b872dd3330896040518463ffffffff1660e01b81526004016106c493929190611d08565b6020604051808303816000875af11580156106e3573d6000803e3d6000fd5b505050506040513d601f19601f820116820180604052508101906107079190611d6b565b50600560009054906101000a900473ffffffffffffffffffffffffffffffffffffffff1673ffffffffffffffffffffffffffffffffffffffff1663a9059cbb33836040518363ffffffff1660e01b8152600401610765929190611d98565b6020604051808303816000875af1158015610784573d6000803e3d6000fd5b505050506040513d601f19601f820116820180604052508101906107a89190611d6b565b50505050505050565b6060600480546107c090611ac6565b80601f01602080910402602001604051908101604052809291908181526020018280546107ec90611ac6565b80156108395780601f1061080e57610100808354040283529160200191610839565b820191906000526020600020905b81548152906001019060200180831161081c57829003601f168201915b5050505050905090565b60008111610886576040517f08c379a000000000000000000000000000000000000000000000000000000000815260040161087d90611e0d565b60405180910390fd5b6000610890610464565b90506000818361089e610c74565b6108a89190611bfe565b6108b29190611c6f565b9050600082846108c061046e565b6108ca9190611bfe565b6108d49190611c6f565b90506108e0338561113b565b600560009054906101000a900473ffffffffffffffffffffffffffffffffffffffff1673ffffffffffffffffffffffffffffffffffffffff1663a9059cbb33846040518363ffffffff1660e01b815260040161093d929190611d98565b6020604051808303816000875af115801561095c573d6000803e3d6000fd5b505050506040513d601f19601f820116820180604052508101906109809190611d6b565b50600660009054906101000a900473ffffffffffffffffffffffffffffffffffffffff1673ffffffffffffffffffffffffffffffffffffffff1663a9059cbb33836040518363ffffffff1660e01b81526004016109de929190611d98565b6020604051808303816000875af11580156109fd573d6000803e3d6000fd5b505050506040513d601f19601f82011682018060405250810190610a219190611d6b565b5050505050565b600082118015610a385750600081115b610a77576040517f08c379a0000000000000000000000000000000000000000000000000000000008152600401610a6e90611baf565b60405180910390fd5b6000610a81610464565b905060008103610aad57610aa833610aa38486610a9e9190611bfe565b6111bd565b611237565b610b01565b6000610af3610aba610c74565b8386610ac69190611bfe565b610ad09190611c6f565b610ad861046e565b8486610ae49190611bfe565b610aee9190611c6f565b6112b9565b9050610aff3382611237565b505b600560009054906101000a900473ffffffffffffffffffffffffffffffffffffffff1673ffffffffffffffffffffffffffffffffffffffff166323b872dd3330866040518463ffffffff1660e01b8152600401610b6093929190611d08565b6020604051808303816000875af1158015610b7f573d6000803e3d6000fd5b505050506040513d601f19601f82011682018060405250810190610ba39190611d6b565b50600660009054906101000a900473ffffffffffffffffffffffffffffffffffffffff1673ffffffffffffffffffffffffffffffffffffffff166323b872dd3330856040518463ffffffff1660e01b8152600401610c0393929190611d08565b6020604051808303816000875af1158015610c22573d6000803e3d6000fd5b505050506040513d601f19601f82011682018060405250810190610c469190611d6b565b50505050565b600080610c57610f98565b9050610c64818585611047565b600191505092915050565b600181565b6000600560009054906101000a900473ffffffffffffffffffffffffffffffffffffffff1673ffffffffffffffffffffffffffffffffffffffff166370a08231306040518263ffffffff1660e01b8152600401610cd19190611b06565b602060405180830381865afa158015610cee573d6000803e3d6000fd5b505050506040513d601f19601f82011682018060405250810190610d129190611b36565b905090565b6000600160008473ffffffffffffffffffffffffffffffffffffffff1673ffffffffffffffffffffffffffffffffffffffff16815260200190815260200160002060008373ffffffffffffffffffffffffffffffffffffffff1673ffffffffffffffffffffffffffffffffffffffff16815260200190815260200160002054905092915050565b60008111610de1576040517f08c379a0000000000000000000000000000000000000000000000000000000008152600401610dd890611baf565b60405180910390fd5b60006064600183610df29190611bfe565b610dfc9190611c6f565b905060008183610e0c9190611ca0565b90506000610e1861046e565b90506000610e24610c74565b905060008382610e349190611cd4565b8484610e409190611bfe565b610e4a9190611c6f565b9050600560009054906101000a900473ffffffffffffffffffffffffffffffffffffffff1673ffffffffffffffffffffffffffffffffffffffff166323b872dd3330896040518463ffffffff1660e01b8152600401610eab93929190611d08565b6020604051808303816000875af1158015610eca573d6000803e3d6000fd5b505050506040513d601f19601f82011682018060405250810190610eee9190611d6b565b50600660009054906101000a900473ffffffffffffffffffffffffffffffffffffffff1673ffffffffffffffffffffffffffffffffffffffff1663a9059cbb33836040518363ffffffff1660e01b8152600401610f4c929190611d98565b6020604051808303816000875af1158015610f6b573d6000803e3d6000fd5b505050506040513d601f19601f82011682018060405250810190610f8f9190611d6b565b50505050505050565b600033905090565b610fad83838360016112d2565b505050565b6000610fbe8484610d17565b90507fffffffffffffffffffffffffffffffffffffffffffffffffffffffffffffffff8110156110415781811015611031578281836040517ffb8f41b200000000000000000000000000000000000000000000000000000000815260040161102893929190611e2d565b60405180910390fd5b611040848484840360006112d2565b5b50505050565b600073ffffffffffffffffffffffffffffffffffffffff168373ffffffffffffffffffffffffffffffffffffffff16036110b95760006040517f96c6fd1e0000000000000000000000000000000000000000000000000000000081526004016110b09190611b06565b60405180910390fd5b600073ffffffffffffffffffffffffffffffffffffffff168273ffffffffffffffffffffffffffffffffffffffff160361112b5760006040517fec442f050000000000000000000000000000000000000000000000000000000081526004016111229190611b06565b60405180910390fd5b6111368383836114a9565b505050565b600073ffffffffffffffffffffffffffffffffffffffff168273ffffffffffffffffffffffffffffffffffffffff16036111ad5760006040517f96c6fd1e0000000000000000000000000000000000000000000000000000000081526004016111a49190611b06565b60405180910390fd5b6111b9826000836114a9565b5050565b6000600382111561122457819050600060016002846111dc9190611c6f565b6111e69190611cd4565b90505b8181101561121e5780915060028182856112039190611c6f565b61120d9190611cd4565b6112179190611c6f565b90506111e9565b50611232565b6000821461123157600190505b5b919050565b600073ffffffffffffffffffffffffffffffffffffffff168273ffffffffffffffffffffffffffffffffffffffff16036112a95760006040517fec442f050000000000000000000000000000000000000000000000000000000081526004016112a09190611b06565b60405180910390fd5b6112b5600083836114a9565b5050565b60008183106112c857816112ca565b825b905092915050565b600073ffffffffffffffffffffffffffffffffffffffff168473ffffffffffffffffffffffffffffffffffffffff16036113445760006040517fe602df0500000000000000000000000000000000000000000000000000000000815260040161133b9190611b06565b60405180910390fd5b600073ffffffffffffffffffffffffffffffffffffffff168373ffffffffffffffffffffffffffffffffffffffff16036113b65760006040517f94280d620000000000000000000000000000000000000000000000000000000081526004016113ad9190611b06565b60405180910390fd5b81600160008673ffffffffffffffffffffffffffffffffffffffff1673ffffffffffffffffffffffffffffffffffffffff16815260200190815260200160002060008573ffffffffffffffffffffffffffffffffffffffff1673ffffffffffffffffffffffffffffffffffffffff1681526020019081526020016000208190555080156114a3578273ffffffffffffffffffffffffffffffffffffffff168473ffffffffffffffffffffffffffffffffffffffff167f8c5be1e5ebec7d5bd14f71427d1e84f3dd0314c0f7b2291e5b200ac8c7c3b9258460405161149a9190611918565b60405180910390a35b50505050565b600073ffffffffffffffffffffffffffffffffffffffff168373ffffffffffffffffffffffffffffffffffffffff16036114fb5780600260008282546114ef9190611cd4565b925050819055506115ce565b60008060008573ffffffffffffffffffffffffffffffffffffffff1673ffffffffffffffffffffffffffffffffffffffff16815260200190815260200160002054905081811015611587578381836040517fe450d38c00000000000000000000000000000000000000000000000000000000815260040161157e93929190611e2d565b60405180910390fd5b8181036000808673ffffffffffffffffffffffffffffffffffffffff1673ffffffffffffffffffffffffffffffffffffffff16815260200190815260200160002081905550505b600073ffffffffffffffffffffffffffffffffffffffff168273ffffffffffffffffffffffffffffffffffffffff16036116175780600260008282540392505081905550611664565b806000808473ffffffffffffffffffffffffffffffffffffffff1673ffffffffffffffffffffffffffffffffffffffff168152602001908152602001600020600082825401925050819055505b8173ffffffffffffffffffffffffffffffffffffffff168373ffffffffffffffffffffffffffffffffffffffff167fddf252ad1be2c89b69c2b068fc378daa952ba7f163c4a11628f55a4df523b3ef836040516116c19190611918565b60405180910390a3505050565b600081519050919050565b600082825260208201905092915050565b60005b838110156117085780820151818401526020810190506116ed565b60008484015250505050565b6000601f19601f8301169050919050565b6000611730826116ce565b61173a81856116d9565b935061174a8185602086016116ea565b61175381611714565b840191505092915050565b600060208201905081810360008301526117788184611725565b905092915050565b600080fd5b600073ffffffffffffffffffffffffffffffffffffffff82169050919050565b60006117b082611785565b9050919050565b6117c0816117a5565b81146117cb57600080fd5b50565b6000813590506117dd816117b7565b92915050565b6000819050919050565b6117f6816117e3565b811461180157600080fd5b50565b600081359050611813816117ed565b92915050565b600080604083850312156118305761182f611780565b5b600061183e858286016117ce565b925050602061184f85828601611804565b9150509250929050565b60008115159050919050565b61186e81611859565b82525050565b60006020820190506118896000830184611865565b92915050565b6000819050919050565b60006118b46118af6118aa84611785565b61188f565b611785565b9050919050565b60006118c682611899565b9050919050565b60006118d8826118bb565b9050919050565b6118e8816118cd565b82525050565b600060208201905061190360008301846118df565b92915050565b611912816117e3565b82525050565b600060208201905061192d6000830184611909565b92915050565b60008060006060848603121561194c5761194b611780565b5b600061195a868287016117ce565b935050602061196b868287016117ce565b925050604061197c86828701611804565b9150509250925092565b600060ff82169050919050565b61199c81611986565b82525050565b60006020820190506119b76000830184611993565b92915050565b6000602082840312156119d3576119d2611780565b5b60006119e1848285016117ce565b91505092915050565b600060208284031215611a00576119ff611780565b5b6000611a0e84828501611804565b91505092915050565b60008060408385031215611a2e57611a2d611780565b5b6000611a3c85828601611804565b9250506020611a4d85828601611804565b9150509250929050565b60008060408385031215611a6e57611a6d611780565b5b6000611a7c858286016117ce565b9250506020611a8d858286016117ce565b9150509250929050565b7f4e487b7100000000000000000000000000000000000000000000000000000000600052602260045260246000fd5b60006002820490506001821680611ade57607f821691505b602082108103611af157611af0611a97565b5b50919050565b611b00816117a5565b82525050565b6000602082019050611b1b6000830184611af7565b92915050565b600081519050611b30816117ed565b92915050565b600060208284031215611b4c57611b4b611780565b5b6000611b5a84828501611b21565b91505092915050565b7f3e30000000000000000000000000000000000000000000000000000000000000600082015250565b6000611b996002836116d9565b9150611ba482611b63565b602082019050919050565b60006020820190508181036000830152611bc881611b8c565b9050919050565b7f4e487b7100000000000000000000000000000000000000000000000000000000600052601160045260246000fd5b6000611c09826117e3565b9150611c14836117e3565b9250828202611c22816117e3565b91508282048414831517611c3957611c38611bcf565b5b5092915050565b7f4e487b7100000000000000000000000000000000000000000000000000000000600052601260045260246000fd5b6000611c7a826117e3565b9150611c85836117e3565b925082611c9557611c94611c40565b5b828204905092915050565b6000611cab826117e3565b9150611cb6836117e3565b9250828203905081811115611cce57611ccd611bcf565b5b92915050565b6000611cdf826117e3565b9150611cea836117e3565b9250828201905080821115611d0257611d01611bcf565b5b92915050565b6000606082019050611d1d6000830186611af7565b611d2a6020830185611af7565b611d376040830184611909565b949350505050565b611d4881611859565b8114611d5357600080fd5b50565b600081519050611d6581611d3f565b92915050565b600060208284031215611d8157611d80611780565b5b6000611d8f84828501611d56565b91505092915050565b6000604082019050611dad6000830185611af7565b611dba6020830184611909565b9392505050565b7f6c703e3000000000000000000000000000000000000000000000000000000000600082015250565b6000611df76004836116d9565b9150611e0282611dc1565b602082019050919050565b60006020820190508181036000830152611e2681611dea565b9050919050565b6000606082019050611e426000830186611af7565b611e4f6020830185611909565b611e5c6040830184611909565b94935050505056fea26469706673582212207557734f08d8b9d85a0e28b7eb6b7d299b000a9abfd3ba598748e6ccb870192b64736f6c634300081c0033",
  "linkReferences": {},
  "deployedLinkReferences": {}
}